{
  "_format": "hh-sol-artifact-1",
  "contractName": "SoulboundToken",
  "sourceName": "contracts/SBT.sol",
  "abi": [
    {
      "inputs": [],
      "stateMutability": "nonpayable",
      "type": "constructor"
    },
    {
      "anonymous": false,
      "inputs": [
        {
          "indexed": true,
          "internalType": "address",
          "name": "owner",
          "type": "address"
        },
        {
          "indexed": true,
          "internalType": "address",
          "name": "approved",
          "type": "address"
        },
        {
          "indexed": true,
          "internalType": "uint256",
          "name": "tokenId",
          "type": "uint256"
        }
      ],
      "name": "Approval",
      "type": "event"
    },
    {
      "anonymous": false,
      "inputs": [
        {
          "indexed": true,
          "internalType": "address",
          "name": "owner",
          "type": "address"
        },
        {
          "indexed": true,
          "internalType": "address",
          "name": "operator",
          "type": "address"
        },
        {
          "indexed": false,
          "internalType": "bool",
          "name": "approved",
          "type": "bool"
        }
      ],
      "name": "ApprovalForAll",
      "type": "event"
    },
    {
      "anonymous": false,
      "inputs": [
        {
          "indexed": false,
          "internalType": "uint256",
          "name": "_fromTokenId",
          "type": "uint256"
        },
        {
          "indexed": false,
          "internalType": "uint256",
          "name": "_toTokenId",
          "type": "uint256"
        }
      ],
      "name": "BatchMetadataUpdate",
      "type": "event"
    },
    {
      "anonymous": false,
      "inputs": [
        {
          "indexed": false,
          "internalType": "uint256",
          "name": "_tokenId",
          "type": "uint256"
        }
      ],
      "name": "MetadataUpdate",
      "type": "event"
    },
    {
      "anonymous": false,
      "inputs": [
        {
          "indexed": true,
          "internalType": "address",
          "name": "previousOwner",
          "type": "address"
        },
        {
          "indexed": true,
          "internalType": "address",
          "name": "newOwner",
          "type": "address"
        }
      ],
      "name": "OwnershipTransferred",
      "type": "event"
    },
    {
      "anonymous": false,
      "inputs": [
        {
          "indexed": true,
          "internalType": "address",
          "name": "to",
          "type": "address"
        },
        {
          "indexed": true,
          "internalType": "uint256",
          "name": "tokenId",
          "type": "uint256"
        },
        {
          "indexed": false,
          "internalType": "string",
          "name": "tokenURI",
          "type": "string"
        }
      ],
      "name": "SBTMinted",
      "type": "event"
    },
    {
      "anonymous": false,
      "inputs": [
        {
          "indexed": true,
          "internalType": "address",
          "name": "from",
          "type": "address"
        },
        {
          "indexed": true,
          "internalType": "address",
          "name": "to",
          "type": "address"
        },
        {
          "indexed": true,
          "internalType": "uint256",
          "name": "tokenId",
          "type": "uint256"
        }
      ],
      "name": "Transfer",
      "type": "event"
    },
    {
      "inputs": [
        {
          "internalType": "address",
          "name": "to",
          "type": "address"
        },
        {
          "internalType": "uint256",
          "name": "tokenId",
          "type": "uint256"
        }
      ],
      "name": "approve",
      "outputs": [],
      "stateMutability": "pure",
      "type": "function"
    },
    {
      "inputs": [
        {
          "internalType": "address",
          "name": "owner",
          "type": "address"
        }
      ],
      "name": "balanceOf",
      "outputs": [
        {
          "internalType": "uint256",
          "name": "",
          "type": "uint256"
        }
      ],
      "stateMutability": "view",
      "type": "function"
    },
    {
      "inputs": [
        {
          "internalType": "uint256",
          "name": "tokenId",
          "type": "uint256"
        }
      ],
      "name": "burn",
      "outputs": [],
      "stateMutability": "nonpayable",
      "type": "function"
    },
    {
      "inputs": [],
      "name": "currentTokenId",
      "outputs": [
        {
          "internalType": "uint256",
          "name": "",
          "type": "uint256"
        }
      ],
      "stateMutability": "view",
      "type": "function"
    },
    {
      "inputs": [
        {
          "internalType": "uint256",
          "name": "tokenId",
          "type": "uint256"
        }
      ],
      "name": "getApproved",
      "outputs": [
        {
          "internalType": "address",
          "name": "",
          "type": "address"
        }
      ],
      "stateMutability": "pure",
      "type": "function"
    },
    {
      "inputs": [
        {
          "internalType": "address",
          "name": "owner",
          "type": "address"
        },
        {
          "internalType": "address",
          "name": "operator",
          "type": "address"
        }
      ],
      "name": "isApprovedForAll",
      "outputs": [
        {
          "internalType": "bool",
          "name": "",
          "type": "bool"
        }
      ],
      "stateMutability": "pure",
      "type": "function"
    },
    {
      "inputs": [
        {
          "internalType": "string",
          "name": "uri",
          "type": "string"
        }
      ],
      "name": "mint",
      "outputs": [
        {
          "internalType": "uint256",
          "name": "",
          "type": "uint256"
        }
      ],
      "stateMutability": "nonpayable",
      "type": "function"
    },
    {
      "inputs": [],
      "name": "name",
      "outputs": [
        {
          "internalType": "string",
          "name": "",
          "type": "string"
        }
      ],
      "stateMutability": "view",
      "type": "function"
    },
    {
      "inputs": [],
      "name": "owner",
      "outputs": [
        {
          "internalType": "address",
          "name": "",
          "type": "address"
        }
      ],
      "stateMutability": "view",
      "type": "function"
    },
    {
      "inputs": [
        {
          "internalType": "uint256",
          "name": "tokenId",
          "type": "uint256"
        }
      ],
      "name": "ownerOf",
      "outputs": [
        {
          "internalType": "address",
          "name": "",
          "type": "address"
        }
      ],
      "stateMutability": "view",
      "type": "function"
    },
    {
      "inputs": [],
      "name": "renounceOwnership",
      "outputs": [],
      "stateMutability": "nonpayable",
      "type": "function"
    },
    {
      "inputs": [
        {
          "internalType": "address",
          "name": "from",
          "type": "address"
        },
        {
          "internalType": "address",
          "name": "to",
          "type": "address"
        },
        {
          "internalType": "uint256",
          "name": "tokenId",
          "type": "uint256"
        }
      ],
      "name": "safeTransferFrom",
      "outputs": [],
      "stateMutability": "nonpayable",
      "type": "function"
    },
    {
      "inputs": [
        {
          "internalType": "address",
          "name": "from",
          "type": "address"
        },
        {
          "internalType": "address",
          "name": "to",
          "type": "address"
        },
        {
          "internalType": "uint256",
          "name": "tokenId",
          "type": "uint256"
        },
        {
          "internalType": "bytes",
          "name": "data",
          "type": "bytes"
        }
      ],
      "name": "safeTransferFrom",
      "outputs": [],
      "stateMutability": "nonpayable",
      "type": "function"
    },
    {
      "inputs": [
        {
          "internalType": "address",
          "name": "operator",
          "type": "address"
        },
        {
          "internalType": "bool",
          "name": "approved",
          "type": "bool"
        }
      ],
      "name": "setApprovalForAll",
      "outputs": [],
      "stateMutability": "pure",
      "type": "function"
    },
    {
      "inputs": [
        {
          "internalType": "bytes4",
          "name": "interfaceId",
          "type": "bytes4"
        }
      ],
      "name": "supportsInterface",
      "outputs": [
        {
          "internalType": "bool",
          "name": "",
          "type": "bool"
        }
      ],
      "stateMutability": "view",
      "type": "function"
    },
    {
      "inputs": [],
      "name": "symbol",
      "outputs": [
        {
          "internalType": "string",
          "name": "",
          "type": "string"
        }
      ],
      "stateMutability": "view",
      "type": "function"
    },
    {
      "inputs": [
        {
          "internalType": "uint256",
          "name": "tokenId",
          "type": "uint256"
        }
      ],
      "name": "tokenURI",
      "outputs": [
        {
          "internalType": "string",
          "name": "",
          "type": "string"
        }
      ],
      "stateMutability": "view",
      "type": "function"
    },
    {
      "inputs": [
        {
          "internalType": "address",
          "name": "from",
          "type": "address"
        },
        {
          "internalType": "address",
          "name": "to",
          "type": "address"
        },
        {
          "internalType": "uint256",
          "name": "tokenId",
          "type": "uint256"
        }
      ],
      "name": "transferFrom",
      "outputs": [],
      "stateMutability": "nonpayable",
      "type": "function"
    },
    {
      "inputs": [
        {
          "internalType": "address",
          "name": "newOwner",
          "type": "address"
        }
      ],
      "name": "transferOwnership",
      "outputs": [],
      "stateMutability": "nonpayable",
      "type": "function"
    }
  ],
  "bytecode": "0x60806040523480156200001157600080fd5b506040518060400160405280600f81526020017f536f756c626f756e6420546f6b656e00000000000000000000000000000000008152506040518060400160405280600381526020017f534254000000000000000000000000000000000000000000000000000000000081525081600090816200008f919062000412565b508060019081620000a1919062000412565b505050620000c4620000b8620000ca60201b60201c565b620000d260201b60201c565b620004f9565b600033905090565b6000600760009054906101000a900473ffffffffffffffffffffffffffffffffffffffff16905081600760006101000a81548173ffffffffffffffffffffffffffffffffffffffff021916908373ffffffffffffffffffffffffffffffffffffffff1602179055508173ffffffffffffffffffffffffffffffffffffffff168173ffffffffffffffffffffffffffffffffffffffff167f8be0079c531659141344cd1fd0a4f28419497f9722a3daafe3b4186f6b6457e060405160405180910390a35050565b600081519050919050565b7f4e487b7100000000000000000000000000000000000000000000000000000000600052604160045260246000fd5b7f4e487b7100000000000000000000000000000000000000000000000000000000600052602260045260246000fd5b600060028204905060018216806200021a57607f821691505b60208210810362000230576200022f620001d2565b5b50919050565b60008190508160005260206000209050919050565b60006020601f8301049050919050565b600082821b905092915050565b6000600883026200029a7fffffffffffffffffffffffffffffffffffffffffffffffffffffffffffffffff826200025b565b620002a686836200025b565b95508019841693508086168417925050509392505050565b6000819050919050565b6000819050919050565b6000620002f3620002ed620002e784620002be565b620002c8565b620002be565b9050919050565b6000819050919050565b6200030f83620002d2565b620003276200031e82620002fa565b84845462000268565b825550505050565b600090565b6200033e6200032f565b6200034b81848462000304565b505050565b5b8181101562000373576200036760008262000334565b60018101905062000351565b5050565b601f821115620003c2576200038c8162000236565b62000397846200024b565b81016020851015620003a7578190505b620003bf620003b6856200024b565b83018262000350565b50505b505050565b600082821c905092915050565b6000620003e760001984600802620003c7565b1980831691505092915050565b6000620004028383620003d4565b9150826002028217905092915050565b6200041d8262000198565b67ffffffffffffffff811115620004395762000438620001a3565b5b62000445825462000201565b6200045282828562000377565b600060209050601f8311600181146200048a576000841562000475578287015190505b620004818582620003f4565b865550620004f1565b601f1984166200049a8662000236565b60005b82811015620004c4578489015182556001820191506020850194506020810190506200049d565b86831015620004e45784890151620004e0601f891682620003d4565b8355505b6001600288020188555050505b505050505050565b612fb080620005096000396000f3fe608060405234801561001057600080fd5b50600436106101205760003560e01c806370a08231116100ad578063b88d4fde11610071578063b88d4fde146102f3578063c87b56dd1461030f578063d85d3d271461033f578063e985e9c51461036f578063f2fde38b1461039f57610120565b806370a0823114610261578063715018a6146102915780638da5cb5b1461029b57806395d89b41146102b9578063a22cb465146102d757610120565b8063095ea7b3116100f4578063095ea7b3146101c157806323b872dd146101dd57806342842e0e146101f957806342966c68146102155780636352211e1461023157610120565b80629a9b7b1461012557806301ffc9a71461014357806306fdde0314610173578063081812fc14610191575b600080fd5b61012d6103bb565b60405161013a9190611cc4565b60405180910390f35b61015d60048036038101906101589190611d4b565b6103c5565b60405161016a9190611d93565b60405180910390f35b61017b610426565b6040516101889190611e3e565b60405180910390f35b6101ab60048036038101906101a69190611e8c565b6104b8565b6040516101b89190611efa565b60405180910390f35b6101db60048036038101906101d69190611f41565b6104bf565b005b6101f760048036038101906101f29190611f81565b6104fa565b005b610213600480360381019061020e9190611f81565b61055a565b005b61022f600480360381019061022a9190611e8c565b61057a565b005b61024b60048036038101906102469190611e8c565b61064d565b6040516102589190611efa565b60405180910390f35b61027b60048036038101906102769190611fd4565b6106d3565b6040516102889190611cc4565b60405180910390f35b61029961078a565b005b6102a361079e565b6040516102b09190611efa565b60405180910390f35b6102c16107c8565b6040516102ce9190611e3e565b60405180910390f35b6102f160048036038101906102ec919061202d565b61085a565b005b61030d600480360381019061030891906121a2565b610895565b005b61032960048036038101906103249190611e8c565b6108f7565b6040516103369190611e3e565b60405180910390f35b610359600480360381019061035491906122c6565b610a09565b6040516103669190611cc4565b60405180910390f35b6103896004803603810190610384919061230f565b610a8f565b6040516103969190611d93565b60405180910390f35b6103b960048036038101906103b49190611fd4565b610a97565b005b6000600854905090565b6000634906490660e01b7bffffffffffffffffffffffffffffffffffffffffffffffffffffffff1916827bffffffffffffffffffffffffffffffffffffffffffffffffffffffff1916148061041f575061041e82610b1a565b5b9050919050565b6060600080546104359061237e565b80601f01602080910402602001604051908101604052809291908181526020018280546104619061237e565b80156104ae5780601f10610483576101008083540402835291602001916104ae565b820191906000526020600020905b81548152906001019060200180831161049157829003601f168201915b5050505050905090565b6000919050565b6040517f08c379a00000000000000000000000000000000000000000000000000000000081526004016104f190612421565b60405180910390fd5b61050b610505610bfc565b82610c04565b61054a576040517f08c379a0000000000000000000000000000000000000000000000000000000008152600401610541906124b3565b60405180910390fd5b610555838383610c99565b505050565b61057583838360405180602001604052806000815250610895565b505050565b60006105858261064d565b90508073ffffffffffffffffffffffffffffffffffffffff166105a6610bfc565b73ffffffffffffffffffffffffffffffffffffffff16148061060157506105cb61079e565b73ffffffffffffffffffffffffffffffffffffffff166105e9610bfc565b73ffffffffffffffffffffffffffffffffffffffff16145b610640576040517f08c379a000000000000000000000000000000000000000000000000000000000815260040161063790612545565b60405180910390fd5b61064982610f92565b5050565b60008061065983610fe5565b9050600073ffffffffffffffffffffffffffffffffffffffff168173ffffffffffffffffffffffffffffffffffffffff16036106ca576040517f08c379a00000000000000000000000000000000000000000000000000000000081526004016106c1906125b1565b60405180910390fd5b80915050919050565b60008073ffffffffffffffffffffffffffffffffffffffff168273ffffffffffffffffffffffffffffffffffffffff1603610743576040517f08c379a000000000000000000000000000000000000000000000000000000000815260040161073a90612643565b60405180910390fd5b600360008373ffffffffffffffffffffffffffffffffffffffff1673ffffffffffffffffffffffffffffffffffffffff168152602001908152602001600020549050919050565b610792611022565b61079c60006110a0565b565b6000600760009054906101000a900473ffffffffffffffffffffffffffffffffffffffff16905090565b6060600180546107d79061237e565b80601f01602080910402602001604051908101604052809291908181526020018280546108039061237e565b80156108505780601f1061082557610100808354040283529160200191610850565b820191906000526020600020905b81548152906001019060200180831161083357829003601f168201915b5050505050905090565b6040517f08c379a000000000000000000000000000000000000000000000000000000000815260040161088c90612421565b60405180910390fd5b6108a66108a0610bfc565b83610c04565b6108e5576040517f08c379a00000000000000000000000000000000000000000000000000000000081526004016108dc906124b3565b60405180910390fd5b6108f184848484611166565b50505050565b6060610902826111c2565b60006006600084815260200190815260200160002080546109229061237e565b80601f016020809104026020016040519081016040528092919081815260200182805461094e9061237e565b801561099b5780601f106109705761010080835404028352916020019161099b565b820191906000526020600020905b81548152906001019060200180831161097e57829003601f168201915b5050505050905060006109ac61120d565b905060008151036109c1578192505050610a04565b6000825111156109f65780826040516020016109de92919061269f565b60405160208183030381529060405292505050610a04565b6109ff84611224565b925050505b919050565b600080600860008154610a1b906126f2565b9190508190559050610a2d338261128c565b610a3781846112aa565b803373ffffffffffffffffffffffffffffffffffffffff167f4b9ad712e7eaa8cc24efaf239a9107a8e27385fb66e301d70c4f0d5747bde65385604051610a7e9190611e3e565b60405180910390a380915050919050565b600092915050565b610a9f611022565b600073ffffffffffffffffffffffffffffffffffffffff168173ffffffffffffffffffffffffffffffffffffffff1603610b0e576040517f08c379a0000000000000000000000000000000000000000000000000000000008152600401610b05906127ac565b60405180910390fd5b610b17816110a0565b50565b60007f80ac58cd000000000000000000000000000000000000000000000000000000007bffffffffffffffffffffffffffffffffffffffffffffffffffffffff1916827bffffffffffffffffffffffffffffffffffffffffffffffffffffffff19161480610be557507f5b5e139f000000000000000000000000000000000000000000000000000000007bffffffffffffffffffffffffffffffffffffffffffffffffffffffff1916827bffffffffffffffffffffffffffffffffffffffffffffffffffffffff1916145b80610bf55750610bf48261134e565b5b9050919050565b600033905090565b600080610c108361064d565b90508073ffffffffffffffffffffffffffffffffffffffff168473ffffffffffffffffffffffffffffffffffffffff161480610c525750610c518185610a8f565b5b80610c9057508373ffffffffffffffffffffffffffffffffffffffff16610c78846104b8565b73ffffffffffffffffffffffffffffffffffffffff16145b91505092915050565b8273ffffffffffffffffffffffffffffffffffffffff16610cb98261064d565b73ffffffffffffffffffffffffffffffffffffffff1614610d0f576040517f08c379a0000000000000000000000000000000000000000000000000000000008152600401610d069061283e565b60405180910390fd5b600073ffffffffffffffffffffffffffffffffffffffff168273ffffffffffffffffffffffffffffffffffffffff1603610d7e576040517f08c379a0000000000000000000000000000000000000000000000000000000008152600401610d75906128d0565b60405180910390fd5b610d8b83838360016113b8565b8273ffffffffffffffffffffffffffffffffffffffff16610dab8261064d565b73ffffffffffffffffffffffffffffffffffffffff1614610e01576040517f08c379a0000000000000000000000000000000000000000000000000000000008152600401610df89061283e565b60405180910390fd5b6004600082815260200190815260200160002060006101000a81549073ffffffffffffffffffffffffffffffffffffffff02191690556001600360008573ffffffffffffffffffffffffffffffffffffffff1673ffffffffffffffffffffffffffffffffffffffff168152602001908152602001600020600082825403925050819055506001600360008473ffffffffffffffffffffffffffffffffffffffff1673ffffffffffffffffffffffffffffffffffffffff16815260200190815260200160002060008282540192505081905550816002600083815260200190815260200160002060006101000a81548173ffffffffffffffffffffffffffffffffffffffff021916908373ffffffffffffffffffffffffffffffffffffffff160217905550808273ffffffffffffffffffffffffffffffffffffffff168473ffffffffffffffffffffffffffffffffffffffff167fddf252ad1be2c89b69c2b068fc378daa952ba7f163c4a11628f55a4df523b3ef60405160405180910390a4610f8d8383836001611470565b505050565b610f9b81611476565b6000600660008381526020019081526020016000208054610fbb9061237e565b905014610fe257600660008281526020019081526020016000206000610fe19190611c4e565b5b50565b60006002600083815260200190815260200160002060009054906101000a900473ffffffffffffffffffffffffffffffffffffffff169050919050565b61102a610bfc565b73ffffffffffffffffffffffffffffffffffffffff1661104861079e565b73ffffffffffffffffffffffffffffffffffffffff161461109e576040517f08c379a00000000000000000000000000000000000000000000000000000000081526004016110959061293c565b60405180910390fd5b565b6000600760009054906101000a900473ffffffffffffffffffffffffffffffffffffffff16905081600760006101000a81548173ffffffffffffffffffffffffffffffffffffffff021916908373ffffffffffffffffffffffffffffffffffffffff1602179055508173ffffffffffffffffffffffffffffffffffffffff168173ffffffffffffffffffffffffffffffffffffffff167f8be0079c531659141344cd1fd0a4f28419497f9722a3daafe3b4186f6b6457e060405160405180910390a35050565b611171848484610c99565b61117d848484846115c4565b6111bc576040517f08c379a00000000000000000000000000000000000000000000000000000000081526004016111b3906129ce565b60405180910390fd5b50505050565b6111cb8161174b565b61120a576040517f08c379a0000000000000000000000000000000000000000000000000000000008152600401611201906125b1565b60405180910390fd5b50565b606060405180602001604052806000815250905090565b606061122f826111c2565b600061123961120d565b905060008151116112595760405180602001604052806000815250611284565b806112638461178c565b60405160200161127492919061269f565b6040516020818303038152906040525b915050919050565b6112a682826040518060200160405280600081525061185a565b5050565b6112b38261174b565b6112f2576040517f08c379a00000000000000000000000000000000000000000000000000000000081526004016112e990612a60565b60405180910390fd5b806006600084815260200190815260200160002090816113129190612c2c565b507ff8e1a15aba9398e019f0b49df1a4fde98ee17ae345cb5f6b5e2c27f5033e8ce7826040516113429190611cc4565b60405180910390a15050565b60007f01ffc9a7000000000000000000000000000000000000000000000000000000007bffffffffffffffffffffffffffffffffffffffffffffffffffffffff1916827bffffffffffffffffffffffffffffffffffffffffffffffffffffffff1916149050919050565b600073ffffffffffffffffffffffffffffffffffffffff168473ffffffffffffffffffffffffffffffffffffffff16148061141f5750600073ffffffffffffffffffffffffffffffffffffffff168373ffffffffffffffffffffffffffffffffffffffff16145b61145e576040517f08c379a000000000000000000000000000000000000000000000000000000000815260040161145590612d70565b60405180910390fd5b61146a848484846118b5565b50505050565b50505050565b60006114818261064d565b90506114918160008460016113b8565b61149a8261064d565b90506004600083815260200190815260200160002060006101000a81549073ffffffffffffffffffffffffffffffffffffffff02191690556001600360008373ffffffffffffffffffffffffffffffffffffffff1673ffffffffffffffffffffffffffffffffffffffff168152602001908152602001600020600082825403925050819055506002600083815260200190815260200160002060006101000a81549073ffffffffffffffffffffffffffffffffffffffff021916905581600073ffffffffffffffffffffffffffffffffffffffff168273ffffffffffffffffffffffffffffffffffffffff167fddf252ad1be2c89b69c2b068fc378daa952ba7f163c4a11628f55a4df523b3ef60405160405180910390a46115c0816000846001611470565b5050565b60006115e58473ffffffffffffffffffffffffffffffffffffffff166118bb565b1561173e578373ffffffffffffffffffffffffffffffffffffffff1663150b7a0261160e610bfc565b8786866040518563ffffffff1660e01b81526004016116309493929190612de5565b6020604051808303816000875af192505050801561166c57506040513d601f19601f820116820180604052508101906116699190612e46565b60015b6116ee573d806000811461169c576040519150601f19603f3d011682016040523d82523d6000602084013e6116a1565b606091505b5060008151036116e6576040517f08c379a00000000000000000000000000000000000000000000000000000000081526004016116dd906129ce565b60405180910390fd5b805181602001fd5b63150b7a0260e01b7bffffffffffffffffffffffffffffffffffffffffffffffffffffffff1916817bffffffffffffffffffffffffffffffffffffffffffffffffffffffff191614915050611743565b600190505b949350505050565b60008073ffffffffffffffffffffffffffffffffffffffff1661176d83610fe5565b73ffffffffffffffffffffffffffffffffffffffff1614159050919050565b60606000600161179b846118de565b01905060008167ffffffffffffffff8111156117ba576117b9612077565b5b6040519080825280601f01601f1916602001820160405280156117ec5781602001600182028036833780820191505090505b509050600082602001820190505b60011561184f578080600190039150507f3031323334353637383961626364656600000000000000000000000000000000600a86061a8153600a858161184357611842612e73565b5b049450600085036117fa575b819350505050919050565b6118648383611a31565b61187160008484846115c4565b6118b0576040517f08c379a00000000000000000000000000000000000000000000000000000000081526004016118a7906129ce565b60405180910390fd5b505050565b50505050565b6000808273ffffffffffffffffffffffffffffffffffffffff163b119050919050565b600080600090507a184f03e93ff9f4daa797ed6e38ed64bf6a1f010000000000000000831061193c577a184f03e93ff9f4daa797ed6e38ed64bf6a1f010000000000000000838161193257611931612e73565b5b0492506040810190505b6d04ee2d6d415b85acef81000000008310611979576d04ee2d6d415b85acef8100000000838161196f5761196e612e73565b5b0492506020810190505b662386f26fc1000083106119a857662386f26fc10000838161199e5761199d612e73565b5b0492506010810190505b6305f5e10083106119d1576305f5e10083816119c7576119c6612e73565b5b0492506008810190505b61271083106119f65761271083816119ec576119eb612e73565b5b0492506004810190505b60648310611a195760648381611a0f57611a0e612e73565b5b0492506002810190505b600a8310611a28576001810190505b80915050919050565b600073ffffffffffffffffffffffffffffffffffffffff168273ffffffffffffffffffffffffffffffffffffffff1603611aa0576040517f08c379a0000000000000000000000000000000000000000000000000000000008152600401611a9790612eee565b60405180910390fd5b611aa98161174b565b15611ae9576040517f08c379a0000000000000000000000000000000000000000000000000000000008152600401611ae090612f5a565b60405180910390fd5b611af76000838360016113b8565b611b008161174b565b15611b40576040517f08c379a0000000000000000000000000000000000000000000000000000000008152600401611b3790612f5a565b60405180910390fd5b6001600360008473ffffffffffffffffffffffffffffffffffffffff1673ffffffffffffffffffffffffffffffffffffffff16815260200190815260200160002060008282540192505081905550816002600083815260200190815260200160002060006101000a81548173ffffffffffffffffffffffffffffffffffffffff021916908373ffffffffffffffffffffffffffffffffffffffff160217905550808273ffffffffffffffffffffffffffffffffffffffff16600073ffffffffffffffffffffffffffffffffffffffff167fddf252ad1be2c89b69c2b068fc378daa952ba7f163c4a11628f55a4df523b3ef60405160405180910390a4611c4a600083836001611470565b5050565b508054611c5a9061237e565b6000825580601f10611c6c5750611c8b565b601f016020900490600052602060002090810190611c8a9190611c8e565b5b50565b5b80821115611ca7576000816000905550600101611c8f565b5090565b6000819050919050565b611cbe81611cab565b82525050565b6000602082019050611cd96000830184611cb5565b92915050565b6000604051905090565b600080fd5b600080fd5b60007fffffffff0000000000000000000000000000000000000000000000000000000082169050919050565b611d2881611cf3565b8114611d3357600080fd5b50565b600081359050611d4581611d1f565b92915050565b600060208284031215611d6157611d60611ce9565b5b6000611d6f84828501611d36565b91505092915050565b60008115159050919050565b611d8d81611d78565b82525050565b6000602082019050611da86000830184611d84565b92915050565b600081519050919050565b600082825260208201905092915050565b60005b83811015611de8578082015181840152602081019050611dcd565b60008484015250505050565b6000601f19601f8301169050919050565b6000611e1082611dae565b611e1a8185611db9565b9350611e2a818560208601611dca565b611e3381611df4565b840191505092915050565b60006020820190508181036000830152611e588184611e05565b905092915050565b611e6981611cab565b8114611e7457600080fd5b50565b600081359050611e8681611e60565b92915050565b600060208284031215611ea257611ea1611ce9565b5b6000611eb084828501611e77565b91505092915050565b600073ffffffffffffffffffffffffffffffffffffffff82169050919050565b6000611ee482611eb9565b9050919050565b611ef481611ed9565b82525050565b6000602082019050611f0f6000830184611eeb565b92915050565b611f1e81611ed9565b8114611f2957600080fd5b50565b600081359050611f3b81611f15565b92915050565b60008060408385031215611f5857611f57611ce9565b5b6000611f6685828601611f2c565b9250506020611f7785828601611e77565b9150509250929050565b600080600060608486031215611f9a57611f99611ce9565b5b6000611fa886828701611f2c565b9350506020611fb986828701611f2c565b9250506040611fca86828701611e77565b9150509250925092565b600060208284031215611fea57611fe9611ce9565b5b6000611ff884828501611f2c565b91505092915050565b61200a81611d78565b811461201557600080fd5b50565b60008135905061202781612001565b92915050565b6000806040838503121561204457612043611ce9565b5b600061205285828601611f2c565b925050602061206385828601612018565b9150509250929050565b600080fd5b600080fd5b7f4e487b7100000000000000000000000000000000000000000000000000000000600052604160045260246000fd5b6120af82611df4565b810181811067ffffffffffffffff821117156120ce576120cd612077565b5b80604052505050565b60006120e1611cdf565b90506120ed82826120a6565b919050565b600067ffffffffffffffff82111561210d5761210c612077565b5b61211682611df4565b9050602081019050919050565b82818337600083830152505050565b6000612145612140846120f2565b6120d7565b90508281526020810184848401111561216157612160612072565b5b61216c848285612123565b509392505050565b600082601f8301126121895761218861206d565b5b8135612199848260208601612132565b91505092915050565b600080600080608085870312156121bc576121bb611ce9565b5b60006121ca87828801611f2c565b94505060206121db87828801611f2c565b93505060406121ec87828801611e77565b925050606085013567ffffffffffffffff81111561220d5761220c611cee565b5b61221987828801612174565b91505092959194509250565b600067ffffffffffffffff8211156122405761223f612077565b5b61224982611df4565b9050602081019050919050565b600061226961226484612225565b6120d7565b90508281526020810184848401111561228557612284612072565b5b612290848285612123565b509392505050565b600082601f8301126122ad576122ac61206d565b5b81356122bd848260208601612256565b91505092915050565b6000602082840312156122dc576122db611ce9565b5b600082013567ffffffffffffffff8111156122fa576122f9611cee565b5b61230684828501612298565b91505092915050565b6000806040838503121561232657612325611ce9565b5b600061233485828601611f2c565b925050602061234585828601611f2c565b9150509250929050565b7f4e487b7100000000000000000000000000000000000000000000000000000000600052602260045260246000fd5b6000600282049050600182168061239657607f821691505b6020821081036123a9576123a861234f565b5b50919050565b7f536f756c626f756e64546f6b656e3a20617070726f76616c732061726520646960008201527f7361626c65640000000000000000000000000000000000000000000000000000602082015250565b600061240b602683611db9565b9150612416826123af565b604082019050919050565b6000602082019050818103600083015261243a816123fe565b9050919050565b7f4552433732313a2063616c6c6572206973206e6f7420746f6b656e206f776e6560008201527f72206f7220617070726f76656400000000000000000000000000000000000000602082015250565b600061249d602d83611db9565b91506124a882612441565b604082019050919050565b600060208201905081810360008301526124cc81612490565b9050919050565b7f536f756c626f756e64546f6b656e3a2063616c6c6572206973206e6f7420746f60008201527f6b656e206f776e6572206e6f7220636f6e7472616374206f776e657200000000602082015250565b600061252f603c83611db9565b915061253a826124d3565b604082019050919050565b6000602082019050818103600083015261255e81612522565b9050919050565b7f4552433732313a20696e76616c696420746f6b656e2049440000000000000000600082015250565b600061259b601883611db9565b91506125a682612565565b602082019050919050565b600060208201905081810360008301526125ca8161258e565b9050919050565b7f4552433732313a2061646472657373207a65726f206973206e6f74206120766160008201527f6c6964206f776e65720000000000000000000000000000000000000000000000602082015250565b600061262d602983611db9565b9150612638826125d1565b604082019050919050565b6000602082019050818103600083015261265c81612620565b9050919050565b600081905092915050565b600061267982611dae565b6126838185612663565b9350612693818560208601611dca565b80840191505092915050565b60006126ab828561266e565b91506126b7828461266e565b91508190509392505050565b7f4e487b7100000000000000000000000000000000000000000000000000000000600052601160045260246000fd5b60006126fd82611cab565b91507fffffffffffffffffffffffffffffffffffffffffffffffffffffffffffffffff820361272f5761272e6126c3565b5b600182019050919050565b7f4f776e61626c653a206e6577206f776e657220697320746865207a65726f206160008201527f6464726573730000000000000000000000000000000000000000000000000000602082015250565b6000612796602683611db9565b91506127a18261273a565b604082019050919050565b600060208201905081810360008301526127c581612789565b9050919050565b7f4552433732313a207472616e736665722066726f6d20696e636f72726563742060008201527f6f776e6572000000000000000000000000000000000000000000000000000000602082015250565b6000612828602583611db9565b9150612833826127cc565b604082019050919050565b600060208201905081810360008301526128578161281b565b9050919050565b7f4552433732313a207472616e7366657220746f20746865207a65726f2061646460008201527f7265737300000000000000000000000000000000000000000000000000000000602082015250565b60006128ba602483611db9565b91506128c58261285e565b604082019050919050565b600060208201905081810360008301526128e9816128ad565b9050919050565b7f4f776e61626c653a2063616c6c6572206973206e6f7420746865206f776e6572600082015250565b6000612926602083611db9565b9150612931826128f0565b602082019050919050565b6000602082019050818103600083015261295581612919565b9050919050565b7f4552433732313a207472616e7366657220746f206e6f6e20455243373231526560008201527f63656976657220696d706c656d656e7465720000000000000000000000000000602082015250565b60006129b8603283611db9565b91506129c38261295c565b604082019050919050565b600060208201905081810360008301526129e7816129ab565b9050919050565b7f45524337323155524953746f726167653a2055524920736574206f66206e6f6e60008201527f6578697374656e7420746f6b656e000000000000000000000000000000000000602082015250565b6000612a4a602e83611db9565b9150612a55826129ee565b604082019050919050565b60006020820190508181036000830152612a7981612a3d565b9050919050565b60008190508160005260206000209050919050565b60006020601f8301049050919050565b600082821b905092915050565b600060088302612ae27fffffffffffffffffffffffffffffffffffffffffffffffffffffffffffffffff82612aa5565b612aec8683612aa5565b95508019841693508086168417925050509392505050565b6000819050919050565b6000612b29612b24612b1f84611cab565b612b04565b611cab565b9050919050565b6000819050919050565b612b4383612b0e565b612b57612b4f82612b30565b848454612ab2565b825550505050565b600090565b612b6c612b5f565b612b77818484612b3a565b505050565b5b81811015612b9b57612b90600082612b64565b600181019050612b7d565b5050565b601f821115612be057612bb181612a80565b612bba84612a95565b81016020851015612bc9578190505b612bdd612bd585612a95565b830182612b7c565b50505b505050565b600082821c905092915050565b6000612c0360001984600802612be5565b1980831691505092915050565b6000612c1c8383612bf2565b9150826002028217905092915050565b612c3582611dae565b67ffffffffffffffff811115612c4e57612c4d612077565b5b612c58825461237e565b612c63828285612b9f565b600060209050601f831160018114612c965760008415612c84578287015190505b612c8e8582612c10565b865550612cf6565b601f198416612ca486612a80565b60005b82811015612ccc57848901518255600182019150602085019450602081019050612ca7565b86831015612ce95784890151612ce5601f891682612bf2565b8355505b6001600288020188555050505b505050505050565b7f536f756c626f756e64546f6b656e3a207472616e73666572732061726520646960008201527f7361626c65640000000000000000000000000000000000000000000000000000602082015250565b6000612d5a602683611db9565b9150612d6582612cfe565b604082019050919050565b60006020820190508181036000830152612d8981612d4d565b9050919050565b600081519050919050565b600082825260208201905092915050565b6000612db782612d90565b612dc18185612d9b565b9350612dd1818560208601611dca565b612dda81611df4565b840191505092915050565b6000608082019050612dfa6000830187611eeb565b612e076020830186611eeb565b612e146040830185611cb5565b8181036060830152612e268184612dac565b905095945050505050565b600081519050612e4081611d1f565b92915050565b600060208284031215612e5c57612e5b611ce9565b5b6000612e6a84828501612e31565b91505092915050565b7f4e487b7100000000000000000000000000000000000000000000000000000000600052601260045260246000fd5b7f4552433732313a206d696e7420746f20746865207a65726f2061646472657373600082015250565b6000612ed8602083611db9565b9150612ee382612ea2565b602082019050919050565b60006020820190508181036000830152612f0781612ecb565b9050919050565b7f4552433732313a20746f6b656e20616c7265616479206d696e74656400000000600082015250565b6000612f44601c83611db9565b9150612f4f82612f0e565b602082019050919050565b60006020820190508181036000830152612f7381612f37565b905091905056fea264697066735822122060d6565eff3ecd4ed6ebfcfda9e9e14cb729927ef78a459e203c21fe6d4e1fa464736f6c63430008140033",
  "linkReferences": {},
  "deployedLinkReferences": {}
}