{
  "_format": "hh-sol-artifact-1",
  "contractName": "SoulboundToken",
  "sourceName": "contracts/SBT.sol",
  "abi": [
    {
      "inputs": [],
      "stateMutability": "nonpayable",
      "type": "constructor"
    },
    {
      "anonymous": false,
      "inputs": [
        {
          "indexed": true,
          "internalType": "address",
          "name": "owner",
          "type": "address"
        },
        {
          "indexed": true,
          "internalType": "address",
          "name": "approved",
          "type": "address"
        },
        {
          "indexed": true,
          "internalType": "uint256",
          "name": "tokenId",
          "type": "uint256"
        }
      ],
      "name": "Approval",
      "type": "event"
    },
    {
      "anonymous": false,
      "inputs": [
        {
          "indexed": true,
          "internalType": "address",
          "name": "owner",
          "type": "address"
        },
        {
          "indexed": true,
          "internalType": "address",
          "name": "operator",
          "type": "address"
        },
        {
          "indexed": false,
          "internalType": "bool",
          "name": "approved",
          "type": "bool"
        }
      ],
      "name": "ApprovalForAll",
      "type": "event"
    },
    {
      "anonymous": false,
      "inputs": [
        {
          "indexed": false,
          "internalType": "uint256",
          "name": "_fromTokenId",
          "type": "uint256"
        },
        {
          "indexed": false,
          "internalType": "uint256",
          "name": "_toTokenId",
          "type": "uint256"
        }
      ],
      "name": "BatchMetadataUpdate",
      "type": "event"
    },
    {
      "anonymous": false,
      "inputs": [
        {
          "indexed": false,
          "internalType": "uint256",
          "name": "_tokenId",
          "type": "uint256"
        }
      ],
      "name": "MetadataUpdate",
      "type": "event"
    },
    {
      "anonymous": false,
      "inputs": [
        {
          "indexed": true,
          "internalType": "address",
          "name": "previousOwner",
          "type": "address"
        },
        {
          "indexed": true,
          "internalType": "address",
          "name": "newOwner",
          "type": "address"
        }
      ],
      "name": "OwnershipTransferred",
      "type": "event"
    },
    {
      "anonymous": false,
      "inputs": [
        {
          "indexed": true,
          "internalType": "address",
          "name": "to",
          "type": "address"
        },
        {
          "indexed": true,
          "internalType": "uint256",
          "name": "tokenId",
          "type": "uint256"
        },
        {
          "indexed": false,
          "internalType": "string",
          "name": "tokenURI",
          "type": "string"
        }
      ],
      "name": "SBTMinted",
      "type": "event"
    },
    {
      "anonymous": false,
      "inputs": [
        {
          "indexed": true,
          "internalType": "address",
          "name": "from",
          "type": "address"
        },
        {
          "indexed": true,
          "internalType": "address",
          "name": "to",
          "type": "address"
        },
        {
          "indexed": true,
          "internalType": "uint256",
          "name": "tokenId",
          "type": "uint256"
        }
      ],
      "name": "Transfer",
      "type": "event"
    },
    {
      "inputs": [
        {
          "internalType": "address",
          "name": "",
          "type": "address"
        },
        {
          "internalType": "uint256",
          "name": "",
          "type": "uint256"
        }
      ],
      "name": "approve",
      "outputs": [],
      "stateMutability": "pure",
      "type": "function"
    },
    {
      "inputs": [
        {
          "internalType": "address",
          "name": "owner",
          "type": "address"
        }
      ],
      "name": "balanceOf",
      "outputs": [
        {
          "internalType": "uint256",
          "name": "",
          "type": "uint256"
        }
      ],
      "stateMutability": "view",
      "type": "function"
    },
    {
      "inputs": [
        {
          "internalType": "uint256",
          "name": "tokenId",
          "type": "uint256"
        }
      ],
      "name": "burn",
      "outputs": [],
      "stateMutability": "nonpayable",
      "type": "function"
    },
    {
      "inputs": [],
      "name": "currentTokenId",
      "outputs": [
        {
          "internalType": "uint256",
          "name": "",
          "type": "uint256"
        }
      ],
      "stateMutability": "view",
      "type": "function"
    },
    {
      "inputs": [
        {
          "internalType": "uint256",
          "name": "",
          "type": "uint256"
        }
      ],
      "name": "getApproved",
      "outputs": [
        {
          "internalType": "address",
          "name": "",
          "type": "address"
        }
      ],
      "stateMutability": "pure",
      "type": "function"
    },
    {
      "inputs": [
        {
          "internalType": "address",
          "name": "",
          "type": "address"
        },
        {
          "internalType": "address",
          "name": "",
          "type": "address"
        }
      ],
      "name": "isApprovedForAll",
      "outputs": [
        {
          "internalType": "bool",
          "name": "",
          "type": "bool"
        }
      ],
      "stateMutability": "pure",
      "type": "function"
    },
    {
      "inputs": [
        {
          "internalType": "address",
          "name": "to",
          "type": "address"
        },
        {
          "internalType": "string",
          "name": "uri",
          "type": "string"
        }
      ],
      "name": "mint",
      "outputs": [
        {
          "internalType": "uint256",
          "name": "",
          "type": "uint256"
        }
      ],
      "stateMutability": "nonpayable",
      "type": "function"
    },
    {
      "inputs": [],
      "name": "name",
      "outputs": [
        {
          "internalType": "string",
          "name": "",
          "type": "string"
        }
      ],
      "stateMutability": "view",
      "type": "function"
    },
    {
      "inputs": [],
      "name": "owner",
      "outputs": [
        {
          "internalType": "address",
          "name": "",
          "type": "address"
        }
      ],
      "stateMutability": "view",
      "type": "function"
    },
    {
      "inputs": [
        {
          "internalType": "uint256",
          "name": "tokenId",
          "type": "uint256"
        }
      ],
      "name": "ownerOf",
      "outputs": [
        {
          "internalType": "address",
          "name": "",
          "type": "address"
        }
      ],
      "stateMutability": "view",
      "type": "function"
    },
    {
      "inputs": [],
      "name": "renounceOwnership",
      "outputs": [],
      "stateMutability": "nonpayable",
      "type": "function"
    },
    {
      "inputs": [
        {
          "internalType": "address",
          "name": "from",
          "type": "address"
        },
        {
          "internalType": "address",
          "name": "to",
          "type": "address"
        },
        {
          "internalType": "uint256",
          "name": "tokenId",
          "type": "uint256"
        }
      ],
      "name": "safeTransferFrom",
      "outputs": [],
      "stateMutability": "nonpayable",
      "type": "function"
    },
    {
      "inputs": [
        {
          "internalType": "address",
          "name": "from",
          "type": "address"
        },
        {
          "internalType": "address",
          "name": "to",
          "type": "address"
        },
        {
          "internalType": "uint256",
          "name": "tokenId",
          "type": "uint256"
        },
        {
          "internalType": "bytes",
          "name": "data",
          "type": "bytes"
        }
      ],
      "name": "safeTransferFrom",
      "outputs": [],
      "stateMutability": "nonpayable",
      "type": "function"
    },
    {
      "inputs": [
        {
          "internalType": "address",
          "name": "",
          "type": "address"
        },
        {
          "internalType": "bool",
          "name": "",
          "type": "bool"
        }
      ],
      "name": "setApprovalForAll",
      "outputs": [],
      "stateMutability": "pure",
      "type": "function"
    },
    {
      "inputs": [
        {
          "internalType": "bytes4",
          "name": "interfaceId",
          "type": "bytes4"
        }
      ],
      "name": "supportsInterface",
      "outputs": [
        {
          "internalType": "bool",
          "name": "",
          "type": "bool"
        }
      ],
      "stateMutability": "view",
      "type": "function"
    },
    {
      "inputs": [],
      "name": "symbol",
      "outputs": [
        {
          "internalType": "string",
          "name": "",
          "type": "string"
        }
      ],
      "stateMutability": "view",
      "type": "function"
    },
    {
      "inputs": [
        {
          "internalType": "uint256",
          "name": "tokenId",
          "type": "uint256"
        }
      ],
      "name": "tokenURI",
      "outputs": [
        {
          "internalType": "string",
          "name": "",
          "type": "string"
        }
      ],
      "stateMutability": "view",
      "type": "function"
    },
    {
      "inputs": [
        {
          "internalType": "address",
          "name": "from",
          "type": "address"
        },
        {
          "internalType": "address",
          "name": "to",
          "type": "address"
        },
        {
          "internalType": "uint256",
          "name": "tokenId",
          "type": "uint256"
        }
      ],
      "name": "transferFrom",
      "outputs": [],
      "stateMutability": "nonpayable",
      "type": "function"
    },
    {
      "inputs": [
        {
          "internalType": "address",
          "name": "newOwner",
          "type": "address"
        }
      ],
      "name": "transferOwnership",
      "outputs": [],
      "stateMutability": "nonpayable",
      "type": "function"
    }
  ],
  "bytecode": "0x60806040523480156200001157600080fd5b506040518060400160405280600f81526020017f536f756c626f756e6420546f6b656e00000000000000000000000000000000008152506040518060400160405280600381526020017f534254000000000000000000000000000000000000000000000000000000000081525081600090816200008f919062000412565b508060019081620000a1919062000412565b505050620000c4620000b8620000ca60201b60201c565b620000d260201b60201c565b620004f9565b600033905090565b6000600760009054906101000a900473ffffffffffffffffffffffffffffffffffffffff16905081600760006101000a81548173ffffffffffffffffffffffffffffffffffffffff021916908373ffffffffffffffffffffffffffffffffffffffff1602179055508173ffffffffffffffffffffffffffffffffffffffff168173ffffffffffffffffffffffffffffffffffffffff167f8be0079c531659141344cd1fd0a4f28419497f9722a3daafe3b4186f6b6457e060405160405180910390a35050565b600081519050919050565b7f4e487b7100000000000000000000000000000000000000000000000000000000600052604160045260246000fd5b7f4e487b7100000000000000000000000000000000000000000000000000000000600052602260045260246000fd5b600060028204905060018216806200021a57607f821691505b60208210810362000230576200022f620001d2565b5b50919050565b60008190508160005260206000209050919050565b60006020601f8301049050919050565b600082821b905092915050565b6000600883026200029a7fffffffffffffffffffffffffffffffffffffffffffffffffffffffffffffffff826200025b565b620002a686836200025b565b95508019841693508086168417925050509392505050565b6000819050919050565b6000819050919050565b6000620002f3620002ed620002e784620002be565b620002c8565b620002be565b9050919050565b6000819050919050565b6200030f83620002d2565b620003276200031e82620002fa565b84845462000268565b825550505050565b600090565b6200033e6200032f565b6200034b81848462000304565b505050565b5b8181101562000373576200036760008262000334565b60018101905062000351565b5050565b601f821115620003c2576200038c8162000236565b62000397846200024b565b81016020851015620003a7578190505b620003bf620003b6856200024b565b83018262000350565b50505b505050565b600082821c905092915050565b6000620003e760001984600802620003c7565b1980831691505092915050565b6000620004028383620003d4565b9150826002028217905092915050565b6200041d8262000198565b67ffffffffffffffff811115620004395762000438620001a3565b5b62000445825462000201565b6200045282828562000377565b600060209050601f8311600181146200048a576000841562000475578287015190505b620004818582620003f4565b865550620004f1565b601f1984166200049a8662000236565b60005b82811015620004c4578489015182556001820191506020850194506020810190506200049d565b86831015620004e45784890151620004e0601f891682620003d4565b8355505b6001600288020188555050505b505050505050565b612e8380620005096000396000f3fe608060405234801561001057600080fd5b50600436106101205760003560e01c806370a08231116100ad578063b88d4fde11610071578063b88d4fde146102f3578063c87b56dd1461030f578063d0def5211461033f578063e985e9c51461036f578063f2fde38b1461039f57610120565b806370a0823114610261578063715018a6146102915780638da5cb5b1461029b57806395d89b41146102b9578063a22cb465146102d757610120565b8063095ea7b3116100f4578063095ea7b3146101c157806323b872dd146101dd57806342842e0e146101f957806342966c68146102155780636352211e1461023157610120565b80629a9b7b1461012557806301ffc9a71461014357806306fdde0314610173578063081812fc14610191575b600080fd5b61012d6103bb565b60405161013a9190611c16565b60405180910390f35b61015d60048036038101906101589190611c9d565b6103c5565b60405161016a9190611ce5565b60405180910390f35b61017b610426565b6040516101889190611d90565b60405180910390f35b6101ab60048036038101906101a69190611dde565b6104b8565b6040516101b89190611e4c565b60405180910390f35b6101db60048036038101906101d69190611e93565b6104bf565b005b6101f760048036038101906101f29190611ed3565b6104fa565b005b610213600480360381019061020e9190611ed3565b61055a565b005b61022f600480360381019061022a9190611dde565b61057a565b005b61024b60048036038101906102469190611dde565b61064d565b6040516102589190611e4c565b60405180910390f35b61027b60048036038101906102769190611f26565b6106d3565b6040516102889190611c16565b60405180910390f35b61029961078a565b005b6102a361079e565b6040516102b09190611e4c565b60405180910390f35b6102c16107c8565b6040516102ce9190611d90565b60405180910390f35b6102f160048036038101906102ec9190611f7f565b61085a565b005b61030d600480360381019061030891906120f4565b610895565b005b61032960048036038101906103249190611dde565b6108f7565b6040516103369190611d90565b60405180910390f35b61035960048036038101906103549190612218565b610a09565b6040516103669190611c16565b60405180910390f35b61038960048036038101906103849190612274565b610a99565b6040516103969190611ce5565b60405180910390f35b6103b960048036038101906103b49190611f26565b610aa1565b005b6000600854905090565b6000634906490660e01b7bffffffffffffffffffffffffffffffffffffffffffffffffffffffff1916827bffffffffffffffffffffffffffffffffffffffffffffffffffffffff1916148061041f575061041e82610b24565b5b9050919050565b606060008054610435906122e3565b80601f0160208091040260200160405190810160405280929190818152602001828054610461906122e3565b80156104ae5780601f10610483576101008083540402835291602001916104ae565b820191906000526020600020905b81548152906001019060200180831161049157829003601f168201915b5050505050905090565b6000919050565b6040517f08c379a00000000000000000000000000000000000000000000000000000000081526004016104f190612386565b60405180910390fd5b61050b610505610c06565b82610c0e565b61054a576040517f08c379a000000000000000000000000000000000000000000000000000000000815260040161054190612418565b60405180910390fd5b610555838383610ca3565b505050565b61057583838360405180602001604052806000815250610895565b505050565b60006105858261064d565b90508073ffffffffffffffffffffffffffffffffffffffff166105a6610c06565b73ffffffffffffffffffffffffffffffffffffffff16148061060157506105cb61079e565b73ffffffffffffffffffffffffffffffffffffffff166105e9610c06565b73ffffffffffffffffffffffffffffffffffffffff16145b610640576040517f08c379a0000000000000000000000000000000000000000000000000000000008152600401610637906124aa565b60405180910390fd5b61064982610f9c565b5050565b60008061065983610fef565b9050600073ffffffffffffffffffffffffffffffffffffffff168173ffffffffffffffffffffffffffffffffffffffff16036106ca576040517f08c379a00000000000000000000000000000000000000000000000000000000081526004016106c190612516565b60405180910390fd5b80915050919050565b60008073ffffffffffffffffffffffffffffffffffffffff168273ffffffffffffffffffffffffffffffffffffffff1603610743576040517f08c379a000000000000000000000000000000000000000000000000000000000815260040161073a906125a8565b60405180910390fd5b600360008373ffffffffffffffffffffffffffffffffffffffff1673ffffffffffffffffffffffffffffffffffffffff168152602001908152602001600020549050919050565b61079261102c565b61079c60006110aa565b565b6000600760009054906101000a900473ffffffffffffffffffffffffffffffffffffffff16905090565b6060600180546107d7906122e3565b80601f0160208091040260200160405190810160405280929190818152602001828054610803906122e3565b80156108505780601f1061082557610100808354040283529160200191610850565b820191906000526020600020905b81548152906001019060200180831161083357829003601f168201915b5050505050905090565b6040517f08c379a000000000000000000000000000000000000000000000000000000000815260040161088c90612386565b60405180910390fd5b6108a66108a0610c06565b83610c0e565b6108e5576040517f08c379a00000000000000000000000000000000000000000000000000000000081526004016108dc90612418565b60405180910390fd5b6108f184848484611170565b50505050565b6060610902826111cc565b6000600660008481526020019081526020016000208054610922906122e3565b80601f016020809104026020016040519081016040528092919081815260200182805461094e906122e3565b801561099b5780601f106109705761010080835404028352916020019161099b565b820191906000526020600020905b81548152906001019060200180831161097e57829003601f168201915b5050505050905060006109ac611217565b905060008151036109c1578192505050610a04565b6000825111156109f65780826040516020016109de929190612604565b60405160208183030381529060405292505050610a04565b6109ff8461122e565b925050505b919050565b6000610a1361102c565b6000600860008154610a2490612657565b9190508190559050610a368482611296565b610a4081846112b4565b808473ffffffffffffffffffffffffffffffffffffffff167f4b9ad712e7eaa8cc24efaf239a9107a8e27385fb66e301d70c4f0d5747bde65385604051610a879190611d90565b60405180910390a38091505092915050565b600092915050565b610aa961102c565b600073ffffffffffffffffffffffffffffffffffffffff168173ffffffffffffffffffffffffffffffffffffffff1603610b18576040517f08c379a0000000000000000000000000000000000000000000000000000000008152600401610b0f90612711565b60405180910390fd5b610b21816110aa565b50565b60007f80ac58cd000000000000000000000000000000000000000000000000000000007bffffffffffffffffffffffffffffffffffffffffffffffffffffffff1916827bffffffffffffffffffffffffffffffffffffffffffffffffffffffff19161480610bef57507f5b5e139f000000000000000000000000000000000000000000000000000000007bffffffffffffffffffffffffffffffffffffffffffffffffffffffff1916827bffffffffffffffffffffffffffffffffffffffffffffffffffffffff1916145b80610bff5750610bfe82611358565b5b9050919050565b600033905090565b600080610c1a8361064d565b90508073ffffffffffffffffffffffffffffffffffffffff168473ffffffffffffffffffffffffffffffffffffffff161480610c5c5750610c5b8185610a99565b5b80610c9a57508373ffffffffffffffffffffffffffffffffffffffff16610c82846104b8565b73ffffffffffffffffffffffffffffffffffffffff16145b91505092915050565b8273ffffffffffffffffffffffffffffffffffffffff16610cc38261064d565b73ffffffffffffffffffffffffffffffffffffffff1614610d19576040517f08c379a0000000000000000000000000000000000000000000000000000000008152600401610d10906127a3565b60405180910390fd5b600073ffffffffffffffffffffffffffffffffffffffff168273ffffffffffffffffffffffffffffffffffffffff1603610d88576040517f08c379a0000000000000000000000000000000000000000000000000000000008152600401610d7f90612835565b60405180910390fd5b610d9583838360016113c2565b8273ffffffffffffffffffffffffffffffffffffffff16610db58261064d565b73ffffffffffffffffffffffffffffffffffffffff1614610e0b576040517f08c379a0000000000000000000000000000000000000000000000000000000008152600401610e02906127a3565b60405180910390fd5b6004600082815260200190815260200160002060006101000a81549073ffffffffffffffffffffffffffffffffffffffff02191690556001600360008573ffffffffffffffffffffffffffffffffffffffff1673ffffffffffffffffffffffffffffffffffffffff168152602001908152602001600020600082825403925050819055506001600360008473ffffffffffffffffffffffffffffffffffffffff1673ffffffffffffffffffffffffffffffffffffffff16815260200190815260200160002060008282540192505081905550816002600083815260200190815260200160002060006101000a81548173ffffffffffffffffffffffffffffffffffffffff021916908373ffffffffffffffffffffffffffffffffffffffff160217905550808273ffffffffffffffffffffffffffffffffffffffff168473ffffffffffffffffffffffffffffffffffffffff167fddf252ad1be2c89b69c2b068fc378daa952ba7f163c4a11628f55a4df523b3ef60405160405180910390a4610f9783838360016113c8565b505050565b610fa5816113ce565b6000600660008381526020019081526020016000208054610fc5906122e3565b905014610fec57600660008281526020019081526020016000206000610feb9190611ba0565b5b50565b60006002600083815260200190815260200160002060009054906101000a900473ffffffffffffffffffffffffffffffffffffffff169050919050565b611034610c06565b73ffffffffffffffffffffffffffffffffffffffff1661105261079e565b73ffffffffffffffffffffffffffffffffffffffff16146110a8576040517f08c379a000000000000000000000000000000000000000000000000000000000815260040161109f906128a1565b60405180910390fd5b565b6000600760009054906101000a900473ffffffffffffffffffffffffffffffffffffffff16905081600760006101000a81548173ffffffffffffffffffffffffffffffffffffffff021916908373ffffffffffffffffffffffffffffffffffffffff1602179055508173ffffffffffffffffffffffffffffffffffffffff168173ffffffffffffffffffffffffffffffffffffffff167f8be0079c531659141344cd1fd0a4f28419497f9722a3daafe3b4186f6b6457e060405160405180910390a35050565b61117b848484610ca3565b6111878484848461151c565b6111c6576040517f08c379a00000000000000000000000000000000000000000000000000000000081526004016111bd90612933565b60405180910390fd5b50505050565b6111d5816116a3565b611214576040517f08c379a000000000000000000000000000000000000000000000000000000000815260040161120b90612516565b60405180910390fd5b50565b606060405180602001604052806000815250905090565b6060611239826111cc565b6000611243611217565b90506000815111611263576040518060200160405280600081525061128e565b8061126d846116e4565b60405160200161127e929190612604565b6040516020818303038152906040525b915050919050565b6112b08282604051806020016040528060008152506117b2565b5050565b6112bd826116a3565b6112fc576040517f08c379a00000000000000000000000000000000000000000000000000000000081526004016112f3906129c5565b60405180910390fd5b8060066000848152602001908152602001600020908161131c9190612b91565b507ff8e1a15aba9398e019f0b49df1a4fde98ee17ae345cb5f6b5e2c27f5033e8ce78260405161134c9190611c16565b60405180910390a15050565b60007f01ffc9a7000000000000000000000000000000000000000000000000000000007bffffffffffffffffffffffffffffffffffffffffffffffffffffffff1916827bffffffffffffffffffffffffffffffffffffffffffffffffffffffff1916149050919050565b50505050565b50505050565b60006113d98261064d565b90506113e98160008460016113c2565b6113f28261064d565b90506004600083815260200190815260200160002060006101000a81549073ffffffffffffffffffffffffffffffffffffffff02191690556001600360008373ffffffffffffffffffffffffffffffffffffffff1673ffffffffffffffffffffffffffffffffffffffff168152602001908152602001600020600082825403925050819055506002600083815260200190815260200160002060006101000a81549073ffffffffffffffffffffffffffffffffffffffff021916905581600073ffffffffffffffffffffffffffffffffffffffff168273ffffffffffffffffffffffffffffffffffffffff167fddf252ad1be2c89b69c2b068fc378daa952ba7f163c4a11628f55a4df523b3ef60405160405180910390a46115188160008460016113c8565b5050565b600061153d8473ffffffffffffffffffffffffffffffffffffffff1661180d565b15611696578373ffffffffffffffffffffffffffffffffffffffff1663150b7a02611566610c06565b8786866040518563ffffffff1660e01b81526004016115889493929190612cb8565b6020604051808303816000875af19250505080156115c457506040513d601f19601f820116820180604052508101906115c19190612d19565b60015b611646573d80600081146115f4576040519150601f19603f3d011682016040523d82523d6000602084013e6115f9565b606091505b50600081510361163e576040517f08c379a000000000000000000000000000000000000000000000000000000000815260040161163590612933565b60405180910390fd5b805181602001fd5b63150b7a0260e01b7bffffffffffffffffffffffffffffffffffffffffffffffffffffffff1916817bffffffffffffffffffffffffffffffffffffffffffffffffffffffff19161491505061169b565b600190505b949350505050565b60008073ffffffffffffffffffffffffffffffffffffffff166116c583610fef565b73ffffffffffffffffffffffffffffffffffffffff1614159050919050565b6060600060016116f384611830565b01905060008167ffffffffffffffff81111561171257611711611fc9565b5b6040519080825280601f01601f1916602001820160405280156117445781602001600182028036833780820191505090505b509050600082602001820190505b6001156117a7578080600190039150507f3031323334353637383961626364656600000000000000000000000000000000600a86061a8153600a858161179b5761179a612d46565b5b04945060008503611752575b819350505050919050565b6117bc8383611983565b6117c9600084848461151c565b611808576040517f08c379a00000000000000000000000000000000000000000000000000000000081526004016117ff90612933565b60405180910390fd5b505050565b6000808273ffffffffffffffffffffffffffffffffffffffff163b119050919050565b600080600090507a184f03e93ff9f4daa797ed6e38ed64bf6a1f010000000000000000831061188e577a184f03e93ff9f4daa797ed6e38ed64bf6a1f010000000000000000838161188457611883612d46565b5b0492506040810190505b6d04ee2d6d415b85acef810000000083106118cb576d04ee2d6d415b85acef810000000083816118c1576118c0612d46565b5b0492506020810190505b662386f26fc1000083106118fa57662386f26fc1000083816118f0576118ef612d46565b5b0492506010810190505b6305f5e1008310611923576305f5e100838161191957611918612d46565b5b0492506008810190505b612710831061194857612710838161193e5761193d612d46565b5b0492506004810190505b6064831061196b576064838161196157611960612d46565b5b0492506002810190505b600a831061197a576001810190505b80915050919050565b600073ffffffffffffffffffffffffffffffffffffffff168273ffffffffffffffffffffffffffffffffffffffff16036119f2576040517f08c379a00000000000000000000000000000000000000000000000000000000081526004016119e990612dc1565b60405180910390fd5b6119fb816116a3565b15611a3b576040517f08c379a0000000000000000000000000000000000000000000000000000000008152600401611a3290612e2d565b60405180910390fd5b611a496000838360016113c2565b611a52816116a3565b15611a92576040517f08c379a0000000000000000000000000000000000000000000000000000000008152600401611a8990612e2d565b60405180910390fd5b6001600360008473ffffffffffffffffffffffffffffffffffffffff1673ffffffffffffffffffffffffffffffffffffffff16815260200190815260200160002060008282540192505081905550816002600083815260200190815260200160002060006101000a81548173ffffffffffffffffffffffffffffffffffffffff021916908373ffffffffffffffffffffffffffffffffffffffff160217905550808273ffffffffffffffffffffffffffffffffffffffff16600073ffffffffffffffffffffffffffffffffffffffff167fddf252ad1be2c89b69c2b068fc378daa952ba7f163c4a11628f55a4df523b3ef60405160405180910390a4611b9c6000838360016113c8565b5050565b508054611bac906122e3565b6000825580601f10611bbe5750611bdd565b601f016020900490600052602060002090810190611bdc9190611be0565b5b50565b5b80821115611bf9576000816000905550600101611be1565b5090565b6000819050919050565b611c1081611bfd565b82525050565b6000602082019050611c2b6000830184611c07565b92915050565b6000604051905090565b600080fd5b600080fd5b60007fffffffff0000000000000000000000000000000000000000000000000000000082169050919050565b611c7a81611c45565b8114611c8557600080fd5b50565b600081359050611c9781611c71565b92915050565b600060208284031215611cb357611cb2611c3b565b5b6000611cc184828501611c88565b91505092915050565b60008115159050919050565b611cdf81611cca565b82525050565b6000602082019050611cfa6000830184611cd6565b92915050565b600081519050919050565b600082825260208201905092915050565b60005b83811015611d3a578082015181840152602081019050611d1f565b60008484015250505050565b6000601f19601f8301169050919050565b6000611d6282611d00565b611d6c8185611d0b565b9350611d7c818560208601611d1c565b611d8581611d46565b840191505092915050565b60006020820190508181036000830152611daa8184611d57565b905092915050565b611dbb81611bfd565b8114611dc657600080fd5b50565b600081359050611dd881611db2565b92915050565b600060208284031215611df457611df3611c3b565b5b6000611e0284828501611dc9565b91505092915050565b600073ffffffffffffffffffffffffffffffffffffffff82169050919050565b6000611e3682611e0b565b9050919050565b611e4681611e2b565b82525050565b6000602082019050611e616000830184611e3d565b92915050565b611e7081611e2b565b8114611e7b57600080fd5b50565b600081359050611e8d81611e67565b92915050565b60008060408385031215611eaa57611ea9611c3b565b5b6000611eb885828601611e7e565b9250506020611ec985828601611dc9565b9150509250929050565b600080600060608486031215611eec57611eeb611c3b565b5b6000611efa86828701611e7e565b9350506020611f0b86828701611e7e565b9250506040611f1c86828701611dc9565b9150509250925092565b600060208284031215611f3c57611f3b611c3b565b5b6000611f4a84828501611e7e565b91505092915050565b611f5c81611cca565b8114611f6757600080fd5b50565b600081359050611f7981611f53565b92915050565b60008060408385031215611f9657611f95611c3b565b5b6000611fa485828601611e7e565b9250506020611fb585828601611f6a565b9150509250929050565b600080fd5b600080fd5b7f4e487b7100000000000000000000000000000000000000000000000000000000600052604160045260246000fd5b61200182611d46565b810181811067ffffffffffffffff821117156120205761201f611fc9565b5b80604052505050565b6000612033611c31565b905061203f8282611ff8565b919050565b600067ffffffffffffffff82111561205f5761205e611fc9565b5b61206882611d46565b9050602081019050919050565b82818337600083830152505050565b600061209761209284612044565b612029565b9050828152602081018484840111156120b3576120b2611fc4565b5b6120be848285612075565b509392505050565b600082601f8301126120db576120da611fbf565b5b81356120eb848260208601612084565b91505092915050565b6000806000806080858703121561210e5761210d611c3b565b5b600061211c87828801611e7e565b945050602061212d87828801611e7e565b935050604061213e87828801611dc9565b925050606085013567ffffffffffffffff81111561215f5761215e611c40565b5b61216b878288016120c6565b91505092959194509250565b600067ffffffffffffffff82111561219257612191611fc9565b5b61219b82611d46565b9050602081019050919050565b60006121bb6121b684612177565b612029565b9050828152602081018484840111156121d7576121d6611fc4565b5b6121e2848285612075565b509392505050565b600082601f8301126121ff576121fe611fbf565b5b813561220f8482602086016121a8565b91505092915050565b6000806040838503121561222f5761222e611c3b565b5b600061223d85828601611e7e565b925050602083013567ffffffffffffffff81111561225e5761225d611c40565b5b61226a858286016121ea565b9150509250929050565b6000806040838503121561228b5761228a611c3b565b5b600061229985828601611e7e565b92505060206122aa85828601611e7e565b9150509250929050565b7f4e487b7100000000000000000000000000000000000000000000000000000000600052602260045260246000fd5b600060028204905060018216806122fb57607f821691505b60208210810361230e5761230d6122b4565b5b50919050565b7f536f756c626f756e64546f6b656e3a20617070726f76616c732061726520646960008201527f7361626c65640000000000000000000000000000000000000000000000000000602082015250565b6000612370602683611d0b565b915061237b82612314565b604082019050919050565b6000602082019050818103600083015261239f81612363565b9050919050565b7f4552433732313a2063616c6c6572206973206e6f7420746f6b656e206f776e6560008201527f72206f7220617070726f76656400000000000000000000000000000000000000602082015250565b6000612402602d83611d0b565b915061240d826123a6565b604082019050919050565b60006020820190508181036000830152612431816123f5565b9050919050565b7f536f756c626f756e64546f6b656e3a2063616c6c6572206973206e6f7420746f60008201527f6b656e206f776e6572206e6f7220636f6e7472616374206f776e657200000000602082015250565b6000612494603c83611d0b565b915061249f82612438565b604082019050919050565b600060208201905081810360008301526124c381612487565b9050919050565b7f4552433732313a20696e76616c696420746f6b656e2049440000000000000000600082015250565b6000612500601883611d0b565b915061250b826124ca565b602082019050919050565b6000602082019050818103600083015261252f816124f3565b9050919050565b7f4552433732313a2061646472657373207a65726f206973206e6f74206120766160008201527f6c6964206f776e65720000000000000000000000000000000000000000000000602082015250565b6000612592602983611d0b565b915061259d82612536565b604082019050919050565b600060208201905081810360008301526125c181612585565b9050919050565b600081905092915050565b60006125de82611d00565b6125e881856125c8565b93506125f8818560208601611d1c565b80840191505092915050565b600061261082856125d3565b915061261c82846125d3565b91508190509392505050565b7f4e487b7100000000000000000000000000000000000000000000000000000000600052601160045260246000fd5b600061266282611bfd565b91507fffffffffffffffffffffffffffffffffffffffffffffffffffffffffffffffff820361269457612693612628565b5b600182019050919050565b7f4f776e61626c653a206e6577206f776e657220697320746865207a65726f206160008201527f6464726573730000000000000000000000000000000000000000000000000000602082015250565b60006126fb602683611d0b565b91506127068261269f565b604082019050919050565b6000602082019050818103600083015261272a816126ee565b9050919050565b7f4552433732313a207472616e736665722066726f6d20696e636f72726563742060008201527f6f776e6572000000000000000000000000000000000000000000000000000000602082015250565b600061278d602583611d0b565b915061279882612731565b604082019050919050565b600060208201905081810360008301526127bc81612780565b9050919050565b7f4552433732313a207472616e7366657220746f20746865207a65726f2061646460008201527f7265737300000000000000000000000000000000000000000000000000000000602082015250565b600061281f602483611d0b565b915061282a826127c3565b604082019050919050565b6000602082019050818103600083015261284e81612812565b9050919050565b7f4f776e61626c653a2063616c6c6572206973206e6f7420746865206f776e6572600082015250565b600061288b602083611d0b565b915061289682612855565b602082019050919050565b600060208201905081810360008301526128ba8161287e565b9050919050565b7f4552433732313a207472616e7366657220746f206e6f6e20455243373231526560008201527f63656976657220696d706c656d656e7465720000000000000000000000000000602082015250565b600061291d603283611d0b565b9150612928826128c1565b604082019050919050565b6000602082019050818103600083015261294c81612910565b9050919050565b7f45524337323155524953746f726167653a2055524920736574206f66206e6f6e60008201527f6578697374656e7420746f6b656e000000000000000000000000000000000000602082015250565b60006129af602e83611d0b565b91506129ba82612953565b604082019050919050565b600060208201905081810360008301526129de816129a2565b9050919050565b60008190508160005260206000209050919050565b60006020601f8301049050919050565b600082821b905092915050565b600060088302612a477fffffffffffffffffffffffffffffffffffffffffffffffffffffffffffffffff82612a0a565b612a518683612a0a565b95508019841693508086168417925050509392505050565b6000819050919050565b6000612a8e612a89612a8484611bfd565b612a69565b611bfd565b9050919050565b6000819050919050565b612aa883612a73565b612abc612ab482612a95565b848454612a17565b825550505050565b600090565b612ad1612ac4565b612adc818484612a9f565b505050565b5b81811015612b0057612af5600082612ac9565b600181019050612ae2565b5050565b601f821115612b4557612b16816129e5565b612b1f846129fa565b81016020851015612b2e578190505b612b42612b3a856129fa565b830182612ae1565b50505b505050565b600082821c905092915050565b6000612b6860001984600802612b4a565b1980831691505092915050565b6000612b818383612b57565b9150826002028217905092915050565b612b9a82611d00565b67ffffffffffffffff811115612bb357612bb2611fc9565b5b612bbd82546122e3565b612bc8828285612b04565b600060209050601f831160018114612bfb5760008415612be9578287015190505b612bf38582612b75565b865550612c5b565b601f198416612c09866129e5565b60005b82811015612c3157848901518255600182019150602085019450602081019050612c0c565b86831015612c4e5784890151612c4a601f891682612b57565b8355505b6001600288020188555050505b505050505050565b600081519050919050565b600082825260208201905092915050565b6000612c8a82612c63565b612c948185612c6e565b9350612ca4818560208601611d1c565b612cad81611d46565b840191505092915050565b6000608082019050612ccd6000830187611e3d565b612cda6020830186611e3d565b612ce76040830185611c07565b8181036060830152612cf98184612c7f565b905095945050505050565b600081519050612d1381611c71565b92915050565b600060208284031215612d2f57612d2e611c3b565b5b6000612d3d84828501612d04565b91505092915050565b7f4e487b7100000000000000000000000000000000000000000000000000000000600052601260045260246000fd5b7f4552433732313a206d696e7420746f20746865207a65726f2061646472657373600082015250565b6000612dab602083611d0b565b9150612db682612d75565b602082019050919050565b60006020820190508181036000830152612dda81612d9e565b9050919050565b7f4552433732313a20746f6b656e20616c7265616479206d696e74656400000000600082015250565b6000612e17601c83611d0b565b9150612e2282612de1565b602082019050919050565b60006020820190508181036000830152612e4681612e0a565b905091905056fea26469706673582212207fec35f6f5cc36f477b1759638bdeb3ea888cc14e7aacffa0aa46713077581ad64736f6c63430008140033",
  "linkReferences": {},
  "deployedLinkReferences": {}
}